:020000040800F2
:10000000E80F0020113D0008313D0008353D000893
:10001000393D00083D3D0008413D0008000000005A
:10002000000000000000000000000000453D000846
:10003000493D0008000000004D3D0008513D00080A
:10004000553D0008593D00085D3D0008613D000830
:10005000653D0008693D00086D3D0008713D0008E0
:10006000753D0008793D00087D3D0008813D000890
:10007000853D0008893D00088D3D0008913D000840
:10008000953D0008993D00089D3D0008A13D0008F0
:10009000C1390008A53D0008A93D0008AD3D000894
:1000A000B13D0008B53D0008B93D0008BD3D000860
:1000B000C13D0008C53D0008C93D0008CD3D000810
:1000C000D13D0008D53D0008D93D0008DD3D0008C0
:1000D000E13D0008D5390008E53D0008E93D00088C
:1000E000ED3D0008F13D0008C93900082DE9F04F49
:1000F000A1B08246002017461D4602910B900DF1DB
:10010000440B6FF000490AE017F8011B0298D04732
:100110000290002800F0A8820B98401C0B903878C1
:1001200008B90B98A2E22528EED100200590069090
:100130000790089009900A9001E040F0010017F83C
:10014000011F2029F9D023290DD02B2904D02D29D6
:1001500006D030290AD00CE040F0020080B2EEE771
:1001600040F00400FAE740F00800F7E740F0100024
:10017000F4E72A290ED12968296051F8042B296057
:10018000002A0D9204D5514240F004000D9180B236
:100190007F1C11E000210D9109E00D99494505D022
:1001A00001EB810302EB430130390D917F1C3A785A
:1001B000A2F130010A29F0D339782E2903D04FF06B
:1001C000FF310C911DE017F8011F2A2907D129687A
:1001D00029607F1C51F8042B29600C9211E000214A
:1001E0000C9109E00C99494505D001EB810302EB24
:1001F000430130390C917F1C3A78A2F130010A2971
:10020000F0D3ADF838000FF65C40397800F048FEC6
:1002100008B117F8010B8DF83A009DF83A006828EC
:1002200002BF39786829622005D06C2804BF38786D
:100230006C2803D171208DF83A007F1C11A804901E
:1002400017F8014BB4F125002AD01C3800F0CC80FF
:10025000001F022840F2C880133800F0EE800938F1
:1002600000F0C280801E00F04F81401E00F024810B
:10027000401E022840F2B880001F00F01D81401F80
:1002800000F08380401E00F0D880401E29D0C01EA0
:100290000CD0801E00F0D180C01E00F0CE803DE169
:1002A0000120059025208DF8440043E1286828604E
:1002B00050F8044B28600394DDF83080B8F1000F4B
:1002C00004D5204600F0F8FD804607E042460021B4
:1002D000204600F00DFE08B1A0EB0408CDF8188010
:1002E00028E1296829604FF03C0851F8040B296087
:1002F0000021CDE9000111A80390DDE90001049C73
:1003000011B908B90C9AC2B10206120FA0EB021281
:100310003032D2B23A2AA8BF27320009A8F101032D
:1003200040EA017009091A5508BF0028984604D010
:10033000039A08EB04039A42E6D308EB0400039007
:10034000C8F13C010C980691814209DA401A0890E4
:100350004FF6EF71BDF838000840ADF83800E9E01D
:10036000002840F1E7809DF8380000F014001028C4
:1003700040F0E0800D98059A801A089A801A401A79
:100380000128C0F2D7800890D4E09DF83A00622896
:100390001AD0682806D06A280CD06C281CD0712886
:1003A00008D019E02868286050F8041B28600B98D2
:1003B0000880BFE02868286050F8042B28600B985C
:1003C000C117C2E90001B5E02868286050F8041B95
:1003D00028600B980870ADE02868286050F8041B6E
:1003E00028600B980860A5E02868C01D20F007026F
:1003F0002A60D2E9000108322A60CDE90001002913
:1004000003D5012005902D200CE0BDF838008107B0
:1004100003D5012005902B2004E0C00704D501205E
:10042000059020208DF84400059911A80818039024
:10043000214600A800F0D8F97CE09DF83A206C2A0B
:100440000DD0712A18BF6A2A09D12868C01D20F072
:1004500007032B60D3E9000108332B6005E029680E
:10046000296051F8040B29600021CDE90001682AB8
:1004700008BF80B207D0622A08BFC0B203D0742A76
:1004800018BF7A2A02D10021CDE900019DF8380079
:10049000000730D5DDE90001002908BF00282AD077
:1004A00044F02000782826D130208DF844008BF8C5
:1004B0000140022005901EE09DF83A00294600F018
:1004C000D8F8CDE90001002904DA0598411C05910E
:1004D0002D210EE0BDF83800810704D50598411C98
:1004E00005912B2105E0C00705D50598411C059114
:1004F000202100F80B10059911A808180390214637
:1005000000A800F0EDF815E00120059028682860AB
:1005100050F8041B28608DF844100BE00120059072
:100520002520002C8DF8440004D00598411C05912D
:1005300000F80B400D980599401A0899401A069941
:10054000401A0999401A0799401A0A99A0EB010824
:100550009DF8380040070FD420208DF8400000247B
:1005600008E0012310AA00A9504600F064FC00280E
:100570007AD1641C4445F4DB059C11AE0AE016F800
:10058000011B0298D047029000286DD00B98401CA8
:100590000B90641E002CF2D130208DF84000002614
:1005A000089C08E0012310AA00A9504600F043FC73
:1005B000002859D1761CA642F4DB069C039E0AE073
:1005C00016F8011B0298D047029000284CD00B98D7
:1005D000401C0B90641E002CF2D130208DF840009E
:1005E0000026099C07E0012310AA00A9504600F04C
:1005F00022FCC8BB761CA642F5DB03980699079C33
:100600000E1809E016F8011B0298D047029058B363
:100610000B98401C0B90641E002CF3D130208DF8F9
:10062000400000260A9C07E0012310AA00A95046BA
:1006300000F001FCC0B9761CA642F5DB9DF838003D
:1006400040077FF56CAD20208DF84000002400E0CD
:10065000641C4445BFF663AD012310AA00A95046AF
:1006600000F0E9FB0028F3D04FF0FF3021B0BDE8E7
:10067000F08F622826D068281DD06A2808D06C2800
:1006800027D0712804D0742823D07A280CD020E0F9
:100690000868C01D20F007000860D0E9002308307A
:1006A00008601946104670470A680A6052F8040B41
:1006B0000A60002170470A680A6052F8040B0A6059
:1006C00000B20BE00A680A6052F8040B0A6040B2FC
:1006D00004E00A680A6052F8040B0A60C117704708
:1006E0002DE9FA4E05460A462F696F2A08BF0824ED
:1006F00005D041F02000782814BF0A2410243C269D
:10070000D5E90001642A18BF692A81468A4605D1C5
:10071000002903DAD9F100096AEB4A0ABAF1000F9D
:1007200008BFB9F1000F0CD1286B50B9082C36D195
:1007300095F83800000732D530203B2687F83B007B
:100740002DE0E31748465146224600F0FDFBA4FB8E
:100750000023A9EB02023032D2B2A6F1010B3A2AF1
:100760005E4603DB9DF80030513B9A1881465FEAF4
:10077000010A0BF8072008BFB9F1000F03D0E868A1
:10078000F1198842DDD3082C09D195F8380000070B
:1007900005D5F05D302802D0761E3020F055C6F128
:1007A0003C00A861F119E960296B884208DA081A4F
:1007B00028624FF6EF71288F08402887BDE8F38E36
:1007C00000290ED595F8381001F01401102908D130
:1007D000696B6A69891A2A6A891A081A0128A8BFE6
:1007E0002862BDE8F38E00002DE9F24F04468EB07A
:1007F000D4E90001CDE9020104AF9DF8380040F0D2
:10080000200BBBF1610F0AD0206B002848BF0620E7
:1008100004D408BFBBF1670F01D1012020636168D8
:10082000C1F30A5040F2FF7290421CD1080304BF8A
:100830002068002809D10320A0619DF838006138A4
:100840001A2836D30FF2306108E00320A0619DF82A
:10085000380061381A2829D30FF21461E0680322A6
:1008600000F0EAFBBEE1012816DA204600F01FFC8A
:10087000012811DB00250020BBF1610F20D1E168C8
:10088000302201F8012B4A1CE2609DF83820612AD1
:100890000CBF782258220FE0626840F2FE3161F30B
:1008A0001E52451A62604FF0FF30E5E70FF2BC516F
:1008B000D4E70FF2C051D1E70A706169891C616108
:1008C00010B90026002584E1BBF1610F40F097804C
:1008D000206B00284CBF2126461CDDE90201D4E92B
:1008E00000AB0022002300F003FC36B23ABF8BF0CD
:1008F0000040CDE902A0CDE902AB06F101082D1FB1
:100900008DF810200DF1110700E0C71DB8F1010F9F
:1009100033DBDDE902010022002300F001FC2CD2D0
:100920001C2102A800F014FCDDE9020100F098FC93
:10093000A8F10708B8F1010F814609DB00F0BCFC03
:1009400002460B46DDE9020100F0CEFCCDE90201D2
:10095000F81D072105E009F00F0200F8012D4FEA0C
:100960002919B9F1010F01DB491EF4D5491E5CBFFD
:10097000002200F8012DF9D5C7E70DF11100391A51
:10098000B142B8BF0E4636B230000DF111072FD478
:10099000884206DA04A9411849780829A8BF0F211E
:1009A00000DA002104AA821800E0761E12F801394C
:1009B000401E8B42F9D00F2904D104A941184A786E
:1009C000521C4A70002802D504AF761C2D1D36B289
:1009D000701E0DD4C1190A783032D2B23A2A03DB24
:1009E0009DF838303A3B9A18401E01F80129F2D59B
:1009F000206B002840F1ED80701E2063E9E0DDE906
:100A000002010022002300F073FB3CBF81F0004193
:100A1000CDE902012DB247F2975068434B49DFF808
:100A2000309190FBF1F52DB2C5F1070ABAF1010F33
:100A300090461CDBDDE902675FEACA7007D54246D3
:100A40004B463046394600F00FFD06460F464FEA4A
:100A50006A0A4046494642464B4600F005FDBAF157
:100A6000000F80468946E7D1CDE9026724E0CAF14C
:100A7000000A0026374F14E05FEACA7007D54246E5
:100A80004B463046394600F0EFFC06460F464FEA2B
:100A90006A0A4046494642464B4600F0E5FC80461D
:100AA0008946BAF1000FE7D1DDE9020132463B4643
:100AB00000F0ACFDCDE90201BBF1660F216BDFF860
:100AC00098900CBF05F10A0006204618142EA8BF06
:100AD000132630208DF810000DF11107012E3DDB9B
:100AE000DDE9020100F0D2FB07F1080104220A232C
:100AF000B0FBF3F303EB8307A0EB4700303001F8C2
:100B0000010D0A20B3FBF0F000EB8007A3EB4703D5
:100B10003033521E01F8013DE9D1083E012E01F1AA
:100B20000807DBDBDDE9020100F0B0FB00F0CEFBE3
:100B300002460B46DDE9020100F0D6FB00224B46DF
:100B400000F092FCCDE90201CAE700BFA0860100D7
:100B5000000024400000F03F84D797410DF11100C0
:100B6000381A0DF1110702E0401E6D1E7F1C397806
:100B70003029F9D0BBF1660F02D12DB2691C04E017
:100B8000BBF1650F0CBF01210021226B8E1836B21C
:100B9000B042B8BF064636B231001AD4814204DAF8
:100BA000C85D3528A8BF392000DA3020CA19521E86
:100BB00000E0761E12F80139491E8342F9D0392827
:100BC00002D1C85D401CC855002902D57F1E761C85
:100BD0006D1C2DB29DF83810009533B23A46204670
:100BE00000F003F80FB0BDE8F08F2DE9F04786B0B4
:100BF00006468A4690461D4600F049FE406A376B1D
:100C000090F80090012D02DA01250FF270284AF0C9
:100C10002000BDF93840662808BF641C12D0672840
:100C200076D114F1040F79DBBC4277DA96F83800FC
:100C3000641C000702D4BD42B8BF2F4624B23F1B3C
:100C400048BF002724B2F068B169012C21DA4A1CA0
:100C500030230B54012F03DA96F83810090702D518
:100C600002F80090521CE742B8BF7C4224B26142B5
:100C7000E719AF42B261B8BF3D4671622DB2F5616E
:100C80002A46B3694146181800F0D6F9781BB062BD
:100C9000BAE00818A54216DA2A46414600F0CCF917
:100CA000B1696918601BB161012F706203DA96F8AF
:100CB0003800000705D5F06801F80090F069401C85
:100CC000F061B762A0E02246414600F0B5F9B06994
:100CD00020182D1B012F03DA96F83810090703D5C9
:100CE000F16800F80190401CB0612DB2AF42B8BF6E
:100CF0003D46F068B3692DB22A4604EB0801181886
:100D000000F09AF9B0692818B061781B70627BE036
:100D1000BAF1610F14D14FF0700A16E0BD4204DA47
:100D200096F83810090758BF2F467F1E48BF002786
:100D3000BAF1670F14BF4FF0450A4FF0650A04E09F
:100D4000BAF1410F08BF4FF0500AB169F06818F8C6
:100D5000013B0B544A1C012F05DA96F8381009079D
:100D600058BFB26115D502F80090531C012FB36132
:100D70000FDB6D1E2DB2AF42B8BF3D462DB22A46E5
:100D80004146181800F058F9B0692818B061781B6E
:100D90007062F068B16901EB0008200008F801AB4F
:100DA00003D42B2008F8010B03E02D2108F8011BC8
:100DB0006442002502AF08E00A2200A800F080FD8E
:100DC000019807F8010B6D1C009C21B20129F3DA90
:100DD000022D06DA4AF02000652804BF302008F80A
:100DE000010B4DB9302008F8010B07E06D1E02A879
:100DF000285C303008F8010B012DF7DAF068B16992
:100E00000818A8EB0000F06196F8380000F0140014
:100E100010280DD17069B1690818716A0818F16954
:100E20000818B16A0818716B8842BCBF081A306292
:100E300006B0BDE8F087F8B504460D4616461F46D5
:100E4000002004E0E86A401CE8627F1E002047B1F1
:100E500016F8011BA868A047A8600028F2D14FF03F
:100E6000FF30F2BD686A6C747A4C00006E616E00EF
:100E70004E414E00696E6600494E4600300050F803
:100E8000041B61B150F8042BD30744BFA9F101033F
:100E90009A180023091F42F8043BFAD1EFE7704784
:100EA0000278C9B28A421AB11CBF10F8012FF9E7C3
:100EB00018BF00207047000000F10103810704D033
:100EC00010F8011B89B18107FAD10268B2F1013132
:100ED000914311F0803F04BF50F8042FF6E710F85B
:100EE000011B11B110F8011BFBE7C01A704700008D
:100EF000C9B2830706D0521E22D310F8013B994293
:100F0000F7D11FE0083A13D302F1040241EA0121AC
:100F100041EA014150F8043B121F21BF4B40A3F1AD
:100F2000013C2CEA030C1CF0803FF3D0C9B2001F37
:100F3000083210F8013B521E28BF91EA030FF8D87F
:100F400018BF0120401E70471B4213D1094236D101
:100F50002AB18446B0FBF2F002FB10C2704700F0E9
:100F6000B7BCFCD30022002370470B000200002115
:100F700000207047904271EB030CF6D370B5B1FAC4
:100F800081F4B3FA83F52C1BA340C4F1200532FA97
:100F900005F63343A2405FF00046E64002E05B08FE
:100FA0005FEA3202841A71EB030524BF204629460A
:100FB0007641F4D302000B003000002170BD012AFD
:100FC000CFD970B5140C20D0B1FA81F4B2FA82F501
:100FD000C4F120046419B4F12006D6D3B2405FF006
:100FE0000044F440002502E052085FEA3303C61AC9
:100FF00071EB020E24BF3046714664416D41F3D35C
:1010000002000B002000290070BD0C46B1FBF2F17C
:1010100002FB11452D0445EA1045B5FBF2F402FB35
:10102000145580B240EA0545B5FBF2F002FB1052C0
:1010300040EA044070BD000062B38B0708D0521E26
:1010400011F8013B00F8013B00F024808B07F6D13A
:10105000830740F0208000BF103A07D330B4B1E8D6
:101060003810103AA0E83810F9D230BC530724BF2A
:10107000B1E80810A0E8081044BF51F8043B40F85C
:10108000043BD20724BF31F8022B20F8022B44BFC7
:101090000B7803707047083A07D3B1E80810083A94
:1010A00040F8043B40F804CBF7D25307E4E730B4F0
:1010B000436803F0004201211B031B0B436004BF84
:1010C0000368002B08D10DE00368DD0F45EA4404F6
:1010D00044605B000360491E4468E302F4D52303C7
:1010E0001B0B436043681A434260084630BC70479C
:1010F0004FF4001C1CEB410F94BF1CEB430F09E0A5
:1011000041EA030C50EA4C0C52EA0C0C03D299420F
:1011100008BF9042704714BF8B4282427047000064
:101120004FF4001C1CEB410F94BF1CEB430F09E074
:1011300041EA030C50EA4C0C52EA0C0C03D28B42ED
:1011400008BF8242704714BF994290427047000026
:1011500070B504460D466068C0F30A5040F2FF7156
:10116000884207D16068000304BF2068002817D0B8
:10117000022070BD20B92046FFF799FF012868DAE8
:10118000012D0FDB40F2FF71091A8D420AD360680E
:10119000002847BF0020304900203049C4E9000141
:1011A000012070BD4142A942616806DA6FF31E5109
:1011B000401941EA0050606042E0401E63684519F2
:1011C000012205F1350062F31F53352801F000417B
:1011D000636003D361600020206070BD002215F1C0
:1011E0001F0F04DA22682360002020356060684207
:1011F00014D0521E25689241C0F12003D2439D4075
:1012000045EAD272256825FA00F6656805FA03F307
:1012100033432360636823FA00F565606068084320
:10122000B2F1004F606003D80DD12078C0070AD515
:101230002068401C2060206828B96068401C6060FD
:101240004FF0FF3070BD6068884204BF20680028FE
:10125000F6D1002070BD00BF0000F0FF0000F07F5D
:10126000F446400D40EAC120490006D200F014F8CF
:10127000004248BF6FF00040604700F00DF84FF0AB
:10128000004188428CBF084640426047400D40EA1A
:10129000C120490080F00D8040F00040490DA1F5CB
:1012A0008061491C05D4D1F11F0154BFC840C0174B
:1012B00070474FF000007047010040F10980F4468C
:1012C000404200F005F851F000416047010000BFC6
:1012D00009D0B0FA80F18840C91CC1F584610905C4
:1012E00001EBD0214005704770B44FF0004591EA02
:1012F000030F44BF6B4000F0EDBA00BF841A71EBDE
:10130000030604D26E40001BB141121973414FF421
:10131000001C1CEB410F34BF7CEB430684E00C0D3A
:10132000A4EB1356362E7DDC012E43DC45EAC323A5
:1013300043EA525312BFD20292025B08240545EAE7
:10134000C12141EA5051D2EBC020994125D407D1A7
:10135000B0FA80F610FA06F164D00020203608E0DA
:10136000B1FA81F6B140C6F1200220FA02F211432F
:10137000B0404FEAF474B4EB465434F001064FEA3F
:1013800074040AD8D6F50016760D04F00044F04037
:1013900061FA06F25040F1404840C00A40EA41502C
:1013A00021F0004128BF5FEA500550F1000044EBF6
:1013B000D12137E045EAC323DB0A45EAC121C90A46
:1013C000B6F120050EDD42EA0242120CC5F12006FC
:1013D00003FA06F6EB4042EA06056D42984161F1D8
:1013E00000010DE062FA06F5F240554063FA06FC92
:1013F00082EA0C02F3405A406D42904161EB0301D6
:1014000011F4801F05D1641E620502D06D004041B9
:10141000494121F48011430875F1004350F1000067
:1014200041EB045170BC70471CEB410F15D223F007
:10143000004352EA43060BD04FEA4C0CBCEB410F81
:1014400004D80C0D661E342EB7DDEBE7801A9941E7
:1014500050EA410608BF0021E4E708BF1CEB430F38
:1014600028BF6FF00001DDE7B0B581EA030C0CF096
:10147000004C40F2FF7515EA11541DBF15EA1357D1
:10148000AC42AF4239E0E41923EA455343F48013F8
:10149000C90241F0004141EA505EC7021100A7FBBA
:1014A000020200284FF00000EEFB01204FF0000187
:1014B000E3FB072118BF42F0010240180021494117
:1014C000E3FB0E01A4F580640F0302D252004041F9
:1014D000494154F101046CDD470872F1004250F1BA
:1014E000000051EB0451A1F580115CBF41EA0C01F1
:1014F000B0BD4CEA05510020B0BD05EA1357AC421F
:1015000014BFAF4241E050EA410E1CBF52EA430E05
:1015100002E061460020B0BD24423C441BD15FEA9A
:10152000070EF6D0090302BF01460020AEF1140EEB
:10153000B1FA81F7AEEB070401FA07FE0C37C7F1E9
:10154000200100FA07F7C8404EEA000E23EA45538F
:1015500043F48013A2E733F00043B3FA83F704BFE8
:10156000B2FA82FE77440B3FE41BB7F1200E2FBF87
:1015700002FA0EF3BB40C7F1200E22FA0EFE38BF6E
:1015800043EA0E03BA40641C82E750EA410E14BFDE
:1015900052EA430E6FF000014FF4001717EB430FB0
:1015A0008ABF194617EB410FB5E74CEA05510020F9
:1015B000B0BDD4F10104B4F120070FDAC4F1200763
:1015C000520828BF42F0010210FA07F501FA07F7A6
:1015D000E1BF2A43E0403843E1400FE0352C98DC7E
:1015E000C7F1200452EA400220FA07F218BF42F085
:1015F000010231FA07F0A1400A43002172F10042D2
:1016000050F1000051EB0C01B0BD0000F0B540F20C
:10161000FF7581EA030C0CF0004C15EA11541DBF54
:1016200015EA1357AC42AF42E5E0BC41C1F31301E8
:10163000C3F31303801A994143F4801304D2641E48
:101640004000494180185941C90241EA5051B1FB5B
:10165000F3F603FB1611A2FB0675D7EBC020A941D8
:1016600002D2761E80185941C90241EA5051B1FB9D
:10167000F3FE03FB1E11A2FB0E75D7EBC020A941A0
:1016800003D2AEF1010E80185941890241EA90510E
:10169000760546EA8E2EB1FBF3F603FB1611A2FB8C
:1016A0000675D7EB8020A94102D2761E80185941D9
:1016B000C90241EA50514EEA060EB1FBF3F603FBB4
:1016C0001611A2FB0675D7EBC020A94102D2761EE7
:1016D00080185941C90241EA5051B1FBF3F703FBAD
:1016E0001711A2FB0735D3EBC020A94167F1000712
:1016F0000CBF004247F0010766F3D5274FEA1E31C1
:10170000B80814F5806412DDBD0775F1004250EB96
:101710000E5051EB045111F5801F5CBF41EA0C01E2
:10172000F0BD4CF07F6141F0E0410020F0BDBD070D
:101730006D0840EA0E5041F48011D4F10104B4F177
:1017400020060ADAC4F120060200E04001FA06F39E
:10175000E1401843B24015430EE0342C13DCC6F1CF
:10176000200445EA40056D0820FA06F2154321FAE7
:1017700006F0A1400D43002175F1004250F1000038
:1017800051EB0C01F0BD00205FEA0C01F0BDCFB9B8
:1017900092185B41B3FA83F704BFB2FA82F6BF191D
:1017A0000B3FB7F120062FBF02FA06F3BB40C7F18B
:1017B000200622FA06F638BF3343BA401CB1E419BA
:1017C000641E33E77F4231F00041B1FA81F404BF77
:1017D000B0FA80F6A4190B3CB4F120062FBF00FA32
:1017E00006F1A140C4F1200620FA06F638BF3143C5
:1017F000A0403C1B1AE7AC421ABF05EA1357AF42A0
:1018000012E050EA41061CBF52EA4306BFE750EA25
:101810004107304661461CBF41EA0551F0BD52EA1E
:10182000430C08BFC143F0BD00204FF4001616EB77
:10183000410F98BF16EB430F08BF16EB410F24BFB3
:10184000C14305E016EB430F0CBF61464CEA05515E
:10185000F0BD000080B5134800F0A6F80FF2480173
:10186000016041608160C1600161416181610FF28D
:101870003C0242628162C162016341630FF2300245
:1018800082630FF23402C2630164416401BD10B58A
:10189000044800F089F80446206808B9FFF7DAFF29
:1018A000204610BD00000020000000002E000000B7
:1018B00066616C736500000074727565000000005D
:1018C00091FBF2F303FB1211C0E9003170470000F5
:1018D00070470000841A71EB030603D2001BB1416C
:1018E000121973414FF4001C1CEB410F34BF7CEB09
:1018F000430443E00C0DA4EB1356352E50DC45EAAF
:10190000C323DB0A45EAC121C912B6F120050DDD6A
:1019100063FA05F6EB4086EA0305124218BF45F06C
:101920000105C01851F100010CD213E062FA06F56E
:10193000F2405540F3415A40B340F3405A408018BA
:10194000594107D349085FEA30005FEA350528BFEF
:1019500045F0010501F58011420875F1004250F192
:10196000000041EB045170BC4FF4001C1CEB410F14
:1019700038BF70470020090D090570471CEB410F67
:1019800010D252EA43060BD0BCEB410F05D80C0D28
:10199000AB43661E342EB5DD02E0AB4380185941DF
:1019A00070BC704770BC70477047000080B2002860
:1019B00006D10120DFF8081B09680882002003E037
:1019C000DFF8FC0A00680A30704780B5DFF8F40AD7
:1019D0004078DFF8EC1A0968C97888421AD3DFF832
:1019E000E00A00688078002814D1DFF8D40A006883
:1019F000808800280ED1DFF8C80A0068C078DFF8B8
:101A0000C01A09688872DFF8C00A00680068804759
:101A1000002000E0022002BD80B2002806D1012093
:101A2000DFF89C1A09680882002003E0DFF8900ABA
:101A300000680C30704780B5DFF8840A0068C17810
:101A4000DFF87C0A0068407900F04FFEDFF8701A7A
:101A50000968897A002925D0C0B200280BD1DFF8A7
:101A6000601A09680979002905D1DFF8541A096854
:101A70008978002901D0022015E0C0B2002811D1D8
:101A8000DFF83C0A00684079DFF8341A0968C87248
:101A9000DFF82C0A0068C078DFF8241A0968087398
:101AA000002000E0022002BD80B2002806D1022002
:101AB000DFF80C1A0968088200202DE00020DFF80A
:101AC0000C1A0880DFF8F809006800787F210842C6
:101AD0002CD1DFF8EC090068407A810608D5DFF8E0
:101AE000EC19097851F00201DFF8E029117007E0E4
:101AF000DFF8D819097811F0FD01DFF8D02911704D
:101B000040060AD5DFF8C409007850F00100DFF87C
:101B1000BC190870DFF8B4097047DFF8B009007825
:101B200010F0FE00DFF8A4190870F3E7DFF8900961
:101B30000068007810F07F00012802D1DFF88C09DE
:101B4000EAE7DFF87C090068007810F07F000228DF
:101B50002CD1DFF86C090068417911F00F000906FB
:101B600011D5DFF86C19C0B251F8200010F0300028
:101B70001028CFD1DFF85409007850F00100DFF8C9
:101B80004C190870C6E7DFF84819C0B251F82000B8
:101B900010F44050B0F5805FBCD1DFF83009007818
:101BA00050F00100DFF824190870B3E70020B3E714
:101BB00010B5DFF80C090068007810F07F000028ED
:101BC0000BD1DFF8FC080068407A10F0DF00DFF886
:101BD000F0180968487200208DE0022840F08A80E1
:101BE000DFF8DC0800684088002805D1DFF8D0085D
:101BF00000680079002801D002207CE0DFF8C408EA
:101C0000DFF8BC180968497931F080031C00DFF85F
:101C1000B02812685279120606D5DFF8B42852F8B7
:101C2000242012F0300205E0DFF8A42852F8242026
:101C300012F440520078834207D2002A05D0DFF820
:101C400080080068807A002801D1022053E008064D
:101C500011D5DFF87C0850F8240010F0300010286F
:101C600046D12000C0B200F01EFE30212000C0B2DC
:101C700000F089FD3CE0DFF8580850F8240010F42B
:101C80004050B0F5805F33D1002C19D140212000A5
:101C9000C0B200F068FEDFF8380850F824004BF6B8
:101CA0008F71084090F4805090F4005040F4004050
:101CB00050F0800080B2DFF8181841F8240017E0D7
:101CC0002000C0B200F0D6FDDFF8040850F8240070
:101CD0004BF68F71084090F4805090F4005040F41F
:101CE000004050F0800080B2DFF8E41741F8240093
:101CF000002000E0022010BDDFF8C4070068417931
:101D000031F08000DFF8B82712685279120606D544
:101D1000DFF8BC2752F8202012F0300205E0DFF88F
:101D2000B02752F8202012F44052DFF898371B7881
:101D300098420DD2DFF888371B685B88002B07D1EB
:101D4000002A05D0DFF878271268927A002A01D19C
:101D5000022027E0090612D5DFF8741751F8201089
:101D600048F6BF72114091F0100141F4004151F06A
:101D7000800189B2DFF8582742F8201011E0DFF81F
:101D8000501751F820104BF68F72114091F480518A
:101D900041F4004151F0800189B2DFF8342742F864
:101DA000201000207047DFF818070068407A50F0D4
:101DB0002000DFF80C170968487200207047DFF830
:101DC00000271268528A80B2002807D18888801ABA
:101DD000DFF8EC1609680882002001E00868101896
:101DE000704770B5DFF8D806006810F1100420883D
:101DF000A16800291AD0002818D0A588A84200D2CE
:101E00000500280080B2A168884706002088401B92
:101E10002080608828186080002000F08AFD2A0059
:101E200092B2010089B2300000F0F9FD208800284C
:101E30000CD04FF44050DFF89C16088000210020A1
:101E400000F084FD3020DFF8901608802088A188FB
:101E5000884205D30320DFF86816096808721DE080
:101E60002088002805D00520DFF85416096808727C
:101E700014E02088002811D10620DFF844160968F4
:101E800008720020DFF85416096889B2DFF850267E
:101E900042F811003020DFF84016088070BDF8B518
:101EA000DFF81C06006810F110052888DFF810160E
:101EB00009680C7A00281FD1042C1DD1DFF82406F4
:101EC0000078012812D10020DFF81016096889B2C5
:101ED000DFF80C2642F811003020DFF8FC150880EE
:101EE00004240020DFF8FC15087004E0072410200B
:101EF000DFF8E41508802BE0AE88864201D3042485
:101F000000E00224B04200D20600300080B2A9688E
:101F100088470700002000F0FFFC320092B2010069
:101F200089B2380000F062FD310089B2002000F073
:101F30000DFD2888801B2880688830186880302034
:101F4000DFF8941508804FF44050DFF888150880BA
:101F5000DFF86C0500680472F1BD10B50220DFF8EF
:101F6000601509684C78DFF85815096809787F22F0
:101F700011424ED1092C02D1FFF727FD69E0052C53
:101F80001BD1DFF83C050068C078802811DADFF843
:101F900030050068807800280BD1DFF82405006840
:101FA0008088002805D1DFF818050068807A0028AD
:101FB00001D008206CE000204BE0032C10D1DFF8AA
:101FC00000050068C078012808D1DFF8F404006833
:101FD0008088002802D1FFF7E6FE3AE0022038E0D0
:101FE000012C36D1DFF8D8040068C07801280ED162
:101FF000DFF8CC0400688088002808D1DFF8C0042E
:102000000068407A800602D5FFF7D2FD21E0022069
:102010001FE0DFF8AC140968097811F07F0101298D
:1020200004D10B2C15D1FFF706FD12E0DFF8901458
:102030000968097811F07F01022909D1012C02D128
:10204000FFF7B6FD05E0032C03D1FFF755FE00E0D6
:102050000220C0B2002808D02000C0B200F015FB5A
:10206000C0B2032801D1092012E0C0B2002801D07B
:1020700008200DE006200021DFF86024126892B2EB
:10208000DFF85C3443F812103021DFF84C24118063
:10209000DFF82C140968087210BD38B5DFF8200489
:1020A000006840780024002506281ED1DFF81004BF
:1020B000006800787F21084240F0B980DFF8000412
:1020C00000688078C0B2012802D1DFF81C44AEE07D
:1020D000C0B2022802D1DFF81444A8E0C0B203283D
:1020E00040F0A580DFF80844A1E000286ED1DFF8B9
:1020F000D01309684988002968D1DFF8C41309683A
:10210000C988022962D1DFF8B81309680979002962
:102110005CD1DFF8AC03006800787F21084208D169
:10212000DFF89C0300688088002802D1DFF8C443F0
:102130007DE0DFF88C030068007810F07F00012854
:1021400011D10021DFF878030068407900F0CDFA62
:1021500000286CD1DFF868030068807A002866D018
:10216000DFF8904363E0DFF858030068007810F070
:102170007F0002285BD1DFF848030068407910F047
:102180000F00DFF83C130968497911F07001DFF89E
:10219000302312685279120606D5DFF8342352F83C
:1021A000202012F0300205E0DFF8242352F820202E
:1021B00012F44052DFF80C331B78984237D20029D2
:1021C00035D1002A33D0DFF82C4330E0082808D17D
:1021D000BB48006800787F21084228D1DFF8184307
:1021E00025E00A2823D1B6480068007810F07F0067
:1021F00001281CD1B2480068807A002817D0B04866
:1022000000684088002812D1AD4800680079002895
:102210000DD1AB480068C088012808D10021A8482A
:102220000068407900F061FA002800D1B34C20002A
:10223000002814D0A24800684582A1480068846143
:102240000020A04700209E490968098A4FF6FF72C6
:10225000914211D109209A49096808725AE09848B8
:102260000068407800F0E3F9C0B20328EBD1092000
:102270009349096808724DE0C0B2022804D0904822
:102280000068008A002804D108208D490968087276
:1022900040E08B4800680078000633D58848006825
:1022A000C0880090009886490968098A884204D24B
:1022B00000988349096808821DE081480068008A07
:1022C0007F490968C988884215D27D480068008A1C
:1022D000402803DA0020834908700CE07848006841
:1022E000008A402190FBF1F202FB1102002A02D188
:1022F00001207C4908704020714909688882FFF7F5
:10230000CEFD07E003206E49096808724FF4405083
:102310007049088031BD38B501247048006880B22A
:10232000774931F81000400000F1804515F5C045AF
:1023300063480068007A092824D028786049096831
:1023400008706D1C28785E49096848706D1CA4B23D
:1023500015EB4405288800F041FBAD1C584909687D
:102360004880A4B215EB4405288800F037FBAD1C6B
:10237000534909688880A4B215EB44052888504960
:102380000968C88001204E49096808724C480068F5
:10239000C088002802D1FFF7E0FD01E0FFF77DFED5
:1023A00000F04FF832BD80B545480068007A022839
:1023B00001D0042805D1FFF772FD41480068007A7A
:1023C0001AE0062817D13E480068407805280ED14B
:1023D0003B48006800787F21084208D138480068EF
:1023E000C07800F049F8384800684068804700F03D
:1023F00013F9082000E0082031490968087200F04C
:1024000020F802BD80B52E480068007A022801D06D
:10241000042801D108200EE0032801D0052805D1A9
:10242000FFF7DFFC26480068007A04E0072801D1A6
:10243000082000E0082022490968087200F001F82D
:1024400002BD80B54021002000F08DFA1C480068D4
:10245000007A082806D14FF480501E4908801020C9
:102460001D49088016480068007A092801D101201A
:1024700000E00020C0B202BD30B412490A78002149
:1024800014E0134B0C00E4B253F8243048F68F7478
:1024900023400C00E4B2234343F4004353F0800391
:1024A0000B4C0D00EDB244F82530491C9142E8D3A5
:1024B000C0B250F080001349086030BC7047000083
:1024C000B807002070010020BC070020B4070020DE
:1024D000005C0040DA070020DC070020505C004070
:1024E00004600040E0070020B1260008BD26000877
:1024F000C9260008A91A0008AD190008191A000811
:10250000086000404C5C00407047000080B500F05F
:10251000DFFA002087490968887200F091FB00F01B
:1025200025FC00208449086001BD80B50020814958
:10253000096888728148C0797E490968487200201C
:102540007C490968C872002000F006F94FF4007158
:10255000002000F008F91021002000F014F94021BB
:10256000002000F0C9F98021002000F0B5F900201A
:1025700000F06DF94021002000F0F5F9002000F096
:102580004FF90021012000F0EEF8C021012000F0F9
:10259000A3F92021012000F0F6F80021012000F02D
:1025A0000DF94FF4C061022000F0DDF84FF48071A6
:1025B000022000F091F90021022000F0FFF8202114
:1025C000022000F0E0F80021032000F0CCF84FF4E6
:1025D0008871032000F090F94021032000F0C3F936
:1025E0004FF44051032000F0E9F80021032000F0EF
:1025F000CAF80020FFF740FF01204F49086001BDE5
:102600004F48807A002802D005204B490860704767
:10261000042049490860704780B54A48007820285E
:1026200004D100F088FA00204649087001BD80B549
:102630000021C0B2212809D13E480068007810F07E
:102640007F00212811D10FF2BD010EE0C0B2202879
:102650000BD138480068007810F07F00212801D1A4
:102660000FF2B9012020374A10700800002801D16C
:10267000022009E02F480068816100202D4A12687D
:10268000508200208847002002BD2A490968097845
:1026900011F07F01212909D1C0B2022801D1002007
:1026A00005E0C0B2222801D1002000E002207047DE
:1026B00080B5254980B2FFF782FB02BD80B5234972
:1026C00080B2FFF77CFB02BD80B51A490968C97862
:1026D000C9B2052901DB002006E01D4AC9B212EB90
:1026E000C10180B2FFF76BFB02BDC9B2002901D066
:1026F000022005E0C0B2022801DB022000E0002039
:102700007047000080B2002805D1082009490968F7
:102710000882002000E00F487047000080B20028C7
:1027200005D10820034909680882002000E0094813
:1027300070470000B8070020C8070020043B0008CD
:1027400098070020E20700205C01002064010020BF
:10275000C80000204C0100204FF6F8710840DFF857
:10276000641208607047DFF86022C0B252F820207F
:1027700048F68F131A40114389B2DFF84C22C0B2D9
:1027800042F820107047DFF84022C0B252F82020F3
:1027900048F6BF731A40CB0601D592F010028906A5
:1027A00001D592F0200242F4004151F0800189B23B
:1027B000DFF81422C0B242F820107047DFF8082278
:1027C000C0B252F820204BF68F731A40CB0401D5CB
:1027D00092F48052890401D592F4005242F40041EF
:1027E00051F0800189B2DFF8E021C0B242F8201038
:1027F0007047DFF8D411C0B251F8201048F6BF720C
:10280000114091F0100191F0200141F4004151F08C
:10281000800189B2DFF8B021C0B242F820107047C1
:10282000DFF8A411C0B251F820104BF68F7211409E
:1028300091F4805191F4005141F4004151F0800134
:1028400089B2DFF88421C0B242F820107047DFF867
:102850007811C0B251F8201048F68F62114041F44F
:10286000004151F0800189B2DFF85C21C0B242F82A
:1028700020107047DFF85011C0B251F82010490401
:1028800010D5DFF84411C0B251F8201048F68F720D
:10289000114041F4404151F08001DFF82C21C0B2D9
:1028A00042F820107047DFF82011C0B251F8201014
:1028B000490610D5DFF81011C0B251F8201048F6C3
:1028C0008F72114041F4004151F0C001DFF8F8204F
:1028D000C0B242F820107047DFF8E820126892B2C8
:1028E000C0B212EBC000DFF8E42089B2490889B217
:1028F000490042F810107047DFF8C820126892B201
:10290000C0B212EBC000DFF8C82089B2490889B212
:10291000490042F810107047DFF8A810096889B222
:10292000C0B211EBC000DFF8A41051F8100080B263
:102930007047DFF89010096889B2C0B211EBC0008F
:10294000DFF88C1051F8100080B27047DFF8742067
:10295000126892B2C0B212EBC000DFF8782089B2E0
:1029600042F810107047DFF85C20126892B2C0B2D3
:1029700012EBC000DFF8602012EB400089B23F2963
:102980000BDB89B24A091F23194200D1521E92B2B1
:10299000910251F40041016007E089B24A08C90779
:1029A00000D5521C92B29102016070470549096836
:1029B00089B2C0B211EBC000074951F81000800580
:1029C000800D7047505C0040005C0040006000409B
:1029D00008600040046000400C600040010080B2CC
:1029E000C9B2090251EA102080B2704710B492B205
:1029F000521C521089B2490001F1804313F5C043C3
:102A000009E00178401C047851EA042119809B1CDC
:102A10009B1C401C521E002AF3D110BC704792B27E
:102A2000521C521089B2490001F1804111F5C04198
:102A300005E00B680380091D401C401C521E002A43
:102A4000F7D1704710B56D4C6D4800F0B9F9A07A18
:102A5000002803D005206849086002E0012066498B
:102A6000086010BDE0B55FF4802000F0FEF95FF46F
:102A70008020019008208DF8090001208DF80A00BF
:102A800001A800F0AFF914208DF8000001208DF8A6
:102A9000010000208DF8020001208DF8030000A83D
:102AA00000F0F5F92A208DF8000000208DF80100D3
:102AB00000A800F0ECF907BD80B5C0B2002803D033
:102AC000504800F07DF902E04F4800F079F901BD6F
:102AD00010B54E4800684E490C684E490968081800
:102AE000002808D008224C4900F006F804224B497F
:102AF000200000F001F810BD30B4002300230BE0EB
:102B0000040F3734DBB201F8134000010024DBB2BC
:102B100011EB43056C705B1CDBB2D2B2934208D25E
:102B2000040F0A2CECD2040F3034DBB201F813404E
:102B3000EBE730BC704780B500203949A1F80204AA
:102B400000203749A1F800040020364908803648A3
:102B50000179364800F034F933484179344800F0BF
:102B60002FF931488179334800F02AF92E4801685D
:102B7000314800F025F9012002BD30B4002212E0F6
:102B80002E4C284D2D88AD04AD0C2B55254B1B88A4
:102B90005B1C244C2380234B1B88C82B02DB0023A7
:102BA000204C2380521CD2B2C9B28A4221D2D2B266
:102BB000135C1C4C24882404F4D41A4C2488640428
:102BC0000DD5DBB20A2B03D00023164C2380E9E796
:102BD000144B1B8853F40043124C2380E2E7DBB212
:102BE0000D2BCDD10F4B1B8853F480430D4C23800C
:102BF000D8E730BC70470000C807002098070020C5
:102C0000603C0008783C0008903C0008E8F7FF1F93
:102C1000ECF7FF1FF0F7FF1FEA000020FA0000208A
:102C200074010020D40700204C010020A83C0008BB
:102C3000F83B0008143C0008C03C00087805002060
:102C400080B50120FFF738FF012080B242490860BB
:102C5000002042490880414800883F490860002020
:102C60003F490860002002BD80B53B4800684FF630
:102C7000FB71084080B238490860FFF7E3FE4FF46B
:102C800005403549086001BD80B5C0B2072801D0B4
:102C90003449087033480078002808D002281DD035
:102CA00013D304282ED020D3052839D050E02E4845
:102CB0000068002805D1FFF7D7FF062029490870D2
:102CC00002E005202749087045E0FFF7CDFF04200A
:102CD000244908700120244908603CE00220214971
:102CE000487003201F49087035E01E484078401E98
:102CF0001C4948701B484078002802D1042019491B
:102D0000087028E01448006850F0100080B21249A2
:102D100008600520134908700A20124948701AE01B
:102D200010484078401E0F4948700E4840780028EF
:102D30000DD1094800684FF6EF71084080B206498E
:102D4000086006200749087000200749086002E073
:102D500006200449087001BD405C0040D8070020EF
:102D6000445C0040CC070020D0070020002006492A
:102D700008604FF40540054908800448008804496C
:102D80000860002070470000445C0040D807002025
:102D9000405C004070B504000D00002614F07F0078
:102DA000FFF704FE060014F07F00FFF7C2FD3200BB
:102DB00092B2010089B22800FFF731FE300070BDE9
:102DC0000EB400B582B003A90091024600AB012108
:102DD000034878440A30FDF789F906BC5DF810FB1A
:102DE000F90E0000002122498279002A35D0204ABC
:102DF000126803689A431E4B1A601E4A12680368E1
:102E00009A431C4B1A60027951180A6803681A43E6
:102E10000A601949096802689143174A1160174905
:102E2000096802689143154A1160417910290CD153
:102E300011490968026811430F4A11600F49096876
:102E4000006808430D4908600EE0094942795118AD
:102E50000A6800681043086006E0027951180A68A1
:102E6000006832EA00000860704705490860704752
:102E70000004014004040140080401400C04014026
:102E8000140401401C4908431C490860704710B4F1
:102E9000002200230F24C178002920D01749096897
:102EA00011F4E061D1F5E0610A0AD2F104032100D6
:102EB0000C00D440417811FA03F2817821400A4392
:102EC00012010F4903785A540121027812F01F02AF
:102ED00091400C4A0078401142F8201009E001218D
:102EE000027812F01F029140074A0078401142F820
:102EF000201010BC704700000000FA050CED00E047
:102F000000E400E000E100E080E100E080B50020A6
:102F1000ADF8000039E086488649097850F821006C
:102F2000ADF80000BDF80000000414D580488149C8
:102F3000097850F8210040F68F7108407C497D4A9D
:102F4000127841F822007C487A49097810EB810018
:102F500050F8040C8047BDF80000000615D57448F1
:102F60007449097850F8210080B248F60F71084082
:102F70006F49704A127841F8220070486D4909780B
:102F800010EB810050F8040C80476D4800686D49D3
:102F90000880000440F1CA806A48008810F00F00E1
:102FA00064490870634800780028B4D1604800681C
:102FB000654908806448008810F030006349088043
:102FC0006148008810F440505F4908805848006804
:102FD00080B24BF6BF71084090F4005090F0200092
:102FE00080B240F4004050F08000514908605548DC
:102FF0000088C0062FD44E48006880B248F60F7192
:1030000008404B490860FFF7CEF94948006880B294
:103010004BF6BF7108404C490988C90401D590F4AA
:10302000805049490988890401D590F400504749E6
:103030000988C90601D590F010004449098889061D
:1030400001D590F0200080B240F4004050F08000A4
:10305000374908606AE036480068ADF80000BDF8FE
:10306000000000052ED53248006840F68F710840F8
:103070002F490860FFF74FF92D48006880B24BF6E2
:10308000BF71084030490988C90401D590F48050C7
:103090002D490988890401D590F400502B490988ED
:1030A000C90601D590F0100028490988890601D584
:1030B00090F0200080B240F4004050F080001C49A5
:1030C000086033E0BDF8000000047FF55EAF1848EB
:1030D000006840F68F71084015490860FFF792F9C3
:1030E0001348006880B24BF6BF7108401649098842
:1030F000C90401D590F4805013490988890401D589
:1031000090F4005011490988C90601D590F01000CB
:103110000E490988890601D590F0200080B240F45C
:10312000004050F0800002490860FFE701BD000048
:10313000005C0040E1070020200100200401002085
:10314000445C0040DE070020DA070020DC07002096
:1031500070B586B004000D00002000200021002181
:103160000026A88900282600208A4CF6FF71084016
:10317000E98808432082A0894EF6F3110840A98807
:103180002A8911436A8911430843A081A08A4FF616
:10319000FF410840A9890843A08200A800F0A9F8CF
:1031A0001A48864201D1039800E00298A1890904D7
:1031B00006D51921484329684900B0FBF1F105E023
:1031C0001921484329688900B0FBF1F16420B1FB63
:1031D000F0F000010209642303FB1211A28912041A
:1031E00008D5C90032316422B1FBF2F111F00701B8
:1031F000084307E0090132316422B1FBF2F111F01A
:103200000F010843208106B070BD00000038014066
:10321000C9B2002904D0818951F40051818104E0B0
:1032200081894DF6FF7211408181704730B40023CF
:1032300000240024002589B240F66A139942050053
:103240000800C0B24309DBB289B211F01F040120AB
:1032500010FA04F4012B01D10C3504E0022B01D14A
:10326000103500E01435D2B2002A03D0286820437C
:10327000286002E02868A043286030BC704780883E
:10328000C005C00D704710B40022002300220022A8
:1032900089B240F66A1291420A00D2B25209D2B201
:1032A00089B211F01F03012414FA03F3012A02D199
:1032B0008289134006E0022A02D1028A134001E00B
:1032C000828A134089B20A0A92B2012111FA02F2EB
:1032D00000880240002B03D0002A01D0012200E028
:1032E00000221000C0B210BC7047000042490860C4
:1032F000704700210021002200213E49096811F099
:103300000C01002904D0042905D0082906D021E0A9
:103310003A49016020E0394901601DE035490968FA
:1033200011F47011334A126812F48032890C891C2E
:10333000002A03D1324A514301600AE02D4A126843
:10334000920303D52E4A5143016002E02B4A5143B8
:10335000016001E0294901602649096811F0F00186
:103360000909284A895C02681300CB40436021495F
:10337000096811F4E061090A224A895C4268130075
:10338000CB4083601B49096811F46051C90A1D4A8A
:10339000895C42681300CB40C3601649096811F488
:1033A0004041890B184A895CC268B2FBF1F10161A6
:1033B0007047C9B2002905D0144909680843134968
:1033C000086005E01149096831EA00000F4908600A
:1033D0007047C9B2002905D00D49096808430C4956
:1033E000086005E00A49096831EA000008490860F8
:1033F0007047000004100240D800424200127A00D8
:1034000000093D003C0100206C0100201810024022
:103410001C10024080B54F48006850F001004D4933
:1034200008604D4800684D4908404B4908604948CC
:1034300000684B490840474908604648006830F436
:103440008020444908604448006830F4FE00424946
:1034500008605FF41F004349086000F005F85FF062
:1034600000604149086001BD80B500F001F801BD70
:1034700082B000200190002000903648006850F48F
:103480008030344908603348006810F40030009000
:103490000198401C01900098002803D10198B0F5D4
:1034A000A06FF0D12B480068800302D50120009066
:1034B00001E0002000900098012847D12B480068C7
:1034C00050F01000294908602848006880088000F2
:1034D000264908602548006850F00200234908602A
:1034E0001D4800681C4908601B4800681A490860AC
:1034F0001948006850F48060174908601648006851
:1035000030F47C10144908601348006850F4E81047
:10351000114908600F48006850F080700D4908603C
:103520000C4800688001FBD50B48006880088000CB
:10353000094908600848006850F002000649086020
:103540000548006810F00C000828F9D102B0704757
:103550000000000000100240041002400000FFF8CC
:10356000FFFFF6FE0810024008ED00E000200240D8
:1035700000B589B000203E4800683E4908803D48BB
:1035800000883D4909880840000401D5FFF7BEFCCA
:1035900038480088384909880840400505D54FF665
:1035A000FF3033490860FEF7C0FF324800883249D7
:1035B00009880840C00559D54FF6FF602C490860BE
:1035C0002E48006800044BD52D480068401C2C494B
:1035D00008602B480068042845D32A480068000783
:1035E00041D42848006880B227490860002007E0DD
:1035F000264951F8201089B200AA42F82010401C38
:103600000828F5D32048006850F001001E490860E2
:103610001D48006880B21B4908601B4800684008CC
:103620004000194908601848006880B215490860D0
:103630000F4800684005FBD54FF6FF300C49086085
:10364000002007E000A951F8201089B20F4A42F883
:103650002010401C0828F5D300200949086002E02A
:103660000020074908600720FFF70EFB09B000BDE6
:10367000445C0040DE070020D8070020485C004082
:10368000C0070020405C0040C4070020005C0040F0
:10369000816807E002681168536889185B18C36085
:1036A00008320260C2689142F4D04A1C82600878F5
:1036B00070472DE9FF4D00F10801009100270268D5
:1036C000520801EBC2010191B84600210291039119
:1036D0000168490800EBC101406800F0010501F1F3
:1036E0000804400804EBC00631E000A8FFF7D0FF53
:1036F0004FFA80FA0AE000980168081800990290D1
:1037000049680818039000980830009002980399BF
:103710008842F0D0401C029010F801BD47450CD102
:10372000B44208BF00F01DF8276805B14F44606837
:1037300000EB070808344745F2D0BAF1000F07F84C
:1037400001BB0AD51AF1010AE8D14745CDD1B442EF
:10375000CBD1304604B0BDE8F08DBAF1010AD5D521
:10376000F3E7012000F000B880B5C046C046024A29
:1037700011001820ABBEFBE72600020070B4002247
:1037800000250023002600240025CA7812F00F022D
:10379000CB78DB0601D58B781A430B781B0621D03A
:1037A0000468002306E0CD78482D02D101259D4014
:1037B00005615B1C082B14D2012515FA03F60D8850
:1037C0003540B542F5D19E000F25B540AC4312FA05
:1037D00006F52C43CD78282DE5D101259D40456186
:1037E000E7E704600B88FF2B26DD4468002320E018
:1037F000012513F1080615FA06F60D883540B54285
:1038000016D19E000F25B540AC4312FA06F52C43A5
:10381000CD78282D04D1012513F10806B540456166
:10382000CD78482D04D1012513F10806B540056176
:103830005B1C082BDCD3446070BC704789B201610B
:10384000704700002C4909884906FBD50100C9B220
:103850002A4A1180704710B586B004002020ADF8C8
:10386000000010208DF8030003208DF8020000A94D
:103870002348FFF783FF20212148FFF7DFFF4FF4A4
:103880000050ADF8000000A91E48FFF777FF4FF485
:1038900000511C48FFF7D2FF25208DF804000320BB
:1038A0008DF8050003208DF8060001208DF8070033
:1038B00001A8FFF7ECFA02940020ADF80C000020FC
:1038C000ADF80E000020ADF810000020ADF8140097
:1038D0000C20ADF8120002A90748FFF739FC0122BD
:1038E00040F225510448FFF7A1FC01210248FFF7EF
:1038F0008FFC06B010BD00000038014004380140C4
:10390000000C01400010014010B52B48B0F8020433
:103910002949B1F8001480B288423DD02648B0F859
:1039200002042549B1F8001480B2884207D2224827
:10393000B0F800042049B1F80214441A04E01E480B
:10394000B0F80204D0F58064A4B2412C00DB40241E
:103950001948B0F802041849B1F802146118164A5F
:10396000A2F802141449B1F80214B1F5806F03DB18
:103970000021114AA2F80214220092B2C0210E4B7B
:1039800080B2C018FFF732F8210089B20120FEF79B
:10399000DDFF0120FEF72DFF10BD80B50749032094
:1039A000FFF7F8F90100C9B20448FFF7E6F8032071
:1039B000FEF736FF01BD000074010020580700200B
:1039C00080B5FFF7D5FD01BD80B55FF48020FFF71E
:1039D0004CFA01BD80B540F225511D48FFF753FC5C
:1039E000002834D01A48FFF74AFC1A49098809040C
:1039F0002DD41849098849040DD5C0B20A2803D02E
:103A000000201449088022E01248008850F4004049
:103A1000104908801BE0C0B20D2806D10D4800886F
:103A200050F480400B49088011E00B49094A128884
:103A30009204920C505407480088401C05490880A5
:103A400004480088C82802DB00200249088001BD24
:103A500000380140D60700204006002010B50024A1
:103A6000FFF7D8FC4FF4A060FFF70CFA012144F2F5
:103A70000400FFF79EFC01211820FFF79AFC0020AC
:103A8000FFF734FC01215FF40000FFF7A2FC5FF4B4
:103A9000E130FFF7E0FE0D4800884FF6FD71084069
:103AA0000A490880FEF7DEFF00F016F802E0012068
:103AB00007490860E4B2074800688442FAD0054824
:103AC0000468E4B2052CF2D10020F1E7405C00402C
:103AD000B4012242C807002080B5064806490860A4
:103AE0000220054909680872044805490860FEF784
:103AF0000DFD01BD98070020B807002054010020EB
:103B0000BC07002009024300020100C03209040082
:103B1000000102020100052400100105240100013A
:103B2000042402020524060001070582030800FFA1
:103B300009040100020A000000070503024000001A
:103B400007058102400000003203530054004D007D
:103B500033003200200056006900720074007500C6
:103B600061006C00200043004F004D002000500019
:103B70006F00720074002000200000002603530034
:103B800054004D006900630072006F0065006C0016
:103B900065006300740072006F006E0069006300CE
:103BA0007300000010B5074979441831064C7C4475
:103BB000163404E00A68081D511888470146A142DE
:103BC000F8D110BD0800000030000000B3D2FFFFA4
:103BD000700600007401002000000000D7FAFFFF0B
:103BE00002000000020000000C020000CB000000F8
:103BF00000000020740100006C696E65636F6469E9
:103C00006E672E706172697479747970653A256493
:103C10000D0A00006C696E65636F64696E672E64DF
:103C2000617461747970653A25640D0A00000000C2
:103C300000F00BF8002801D0FFF7B4FF0020C046C9
:103C4000C046FFF70BFF00F002F80120704700F0BC
:103C500001B8000007463846FFF786FDFBE7000085
:103C60006C65617665206C6F7720706F7765722068
:103C70006D6F64650D0A00007573622070756C6C61
:103C800020757020656E61626C650D0A0000000091
:103C90007573622070756C6C207570206469736137
:103CA000626C650D0A0000006C696E65636F646983
:103CB0006E672E666F726D61743A25640D0A00009E
:103CC0006C696E65636F64696E672E626974726198
:103CD00074653A25640D0A0038B504460D46284639
:103CE00000F006F8A84218BF0024204632BD0000AC
:103CF0000149FFF7A7BD00BF8800002012010002A4
:103D0000020000408304405700020102030100004A
:103D1000014880470148004715340008213D00084C
:103D2000C046C046C046C046FFF782FF04030904F0
:103D3000FFF7FEBFFFF7FEBFFFF7FEBFFFF7FEBFB7
:103D4000FFF7FEBFFFF7FEBFFFF7FEBFFFF7FEBFA7
:103D5000FFF7FEBFFFF7FEBFFFF7FEBFFFF7FEBF97
:103D6000FFF7FEBFFFF7FEBFFFF7FEBFFFF7FEBF87
:103D7000FFF7FEBFFFF7FEBFFFF7FEBFFFF7FEBF77
:103D8000FFF7FEBFFFF7FEBFFFF7FEBFFFF7FEBF67
:103D9000FFF7FEBFFFF7FEBFFFF7FEBFFFF7FEBF57
:103DA000FFF7FEBFFFF7FEBFFFF7FEBFFFF7FEBF47
:103DB000FFF7FEBFFFF7FEBFFFF7FEBFFFF7FEBF37
:103DC000FFF7FEBFFFF7FEBFFFF7FEBFFFF7FEBF27
:103DD000FFF7FEBFFFF7FEBFFFF7FEBFFFF7FEBF17
:103DE000FFF7FEBFFFF7FEBFFFF7FEBFFFF7FEBF07
:103DF000FFF7FEBFE400F8FFDC00FAFFC6001F0279
:103E000004010108070020580700200807002008C7
:103E100007002008070020C5000020AC000020E0BB
:103E200000042C3D000804FD00047C3B000826FD36
:103E30000004483B000832FD0004E80000201AFDA1
:103E4000000A1A03530054004D00330032EF0037CC
:103E50000939000809250008092500080925000876
:103E6000092500080925000809250008092500087A
:103E7000092500089B3900080925000809250008C4
:103E80000925000809250008FC000E0102030401B1
:103E90000203040607080900C201FD000E08000124
:103EA00026000811260008FC3C000812FD0004044E
:0F3EB0003B000843FD0007020406080401000060
:0400000508003D2191
:00000001FF
