:10000000780A0020091200002D12000031120000B1
:1000100035120000391200003D12000000000000FF
:10002000000000000000000000000000411200007D
:100030004512000000000000491200004D120000AF
:100040005112000055120000591200005D1200000C
:100050006112000065120000691200006D120000BC
:100060007112000075120000791200007D1200006C
:100070008112000085120000891200008D1200001C
:100080009112000095120000991200009D120000CC
:10009000A1120000A5120000A9120000AD1200007C
:1000A000B1120000B5120000B9120000BD1200002C
:1000B000C1120000C5120000C9120000CD120000DC
:1000C000D1120000D5120000D9120000DD1200008C
:1000D000E1120000E5120000E9120000ED1200003C
:1000E000F1120000F5120000F9120000FD120000EC
:1000F0000113000005130000091300000D13000098
:100100001113000015130000191300001D13000047
:100110002113000025130000291300002D130000F7
:100120003113000035130000391300003D130000A7
:100130004113000045130000491300004D13000057
:100140005113000055130000591300005D13000007
:100150006113000065130000691300006D130000B7
:100160007113000075130000791300007D13000067
:100170008113000085130000891300008D13000017
:1001800091130000000000000000000000000000CB
:1001900095130000991300009D130000A1130000A7
:1001A000A5130000A9130000AD130000B113000057
:1001B000B5130000B9130000BD130000C113000007
:1001C000DFF800F001000020DFF800F05B00002005
:1001D000DFF800F0B5000020DFF8641440B24209F7
:1001E00051F8221010F01F000A00C24012F0010066
:1001F0007047012110F01F029140DFF8482440B2FF
:10020000400942F8201070470120DFF83C140860D4
:100210000020DFF8381408600920DFF83414086083
:100220006020DFF8301408600020DFF82C1408602C
:100230007620DFF8281408600E20DFF82414086008
:100240000120DFF8201408600120DFF81C1408608A
:10025000704710B508210022DFF81044200000F09C
:1002600023FABD20DFF8041408700121DFF8FC0335
:1002700000F0D3F9AA20DFF8F4130870A120DFF80A
:10028000EC134870BD20DFF8E4138870A320DFF87A
:10029000DC13C870A420DFF8D4130871A520DFF8A0
:1002A000CC134871A620DFF8C4138871A720DFF8AB
:1002B000BC13C8710821DFF8B40300F0AEF94FF4A5
:1002C0008040FFF77DFF4FF4A040FFF779FF4FF428
:1002D000C040FFF775FF4FF4E040FFF771FFDFF814
:1002E00090034068FFF770FFDFF884038068FFF732
:1002F0006BFFDFF87C03C068FFF766FFDFF8700371
:100300000069FFF761FFDFF868034069FFF75CFFF2
:10031000DFF85C038069FFF757FFDFF85403C0691B
:10032000FFF752FFDFF84803006AFFF74DFFDFF8E1
:100330004003406AFFF748FFDFF83403806AFFF7A5
:1003400043FFDFF82C03C06AFFF73EFFDFF820030E
:10035000006BFFF739FFDFF81803406BFFF734FF3E
:10036000DFF80C03806BFFF72FFFDFF80403C06B8F
:10037000FFF72AFF5FF4C021002000F03DFABD49DD
:100380000880BD488088BB490988884201D1012086
:1003900000E0002010BD80B500208DF8000000A80E
:1003A00000F024F901280AD19DF80000B349B44AAD
:1003B00012785054B2480078401CB1490870B048D7
:1003C0000078002830D10020AD490870AB48007893
:1003D000AA2820D1A9484078A0281CD1A748807815
:1003E000502818D1A548C078A02814D1A348007976
:1003F000A4490870A1484079A34908709F488079B2
:10040000A2490870BD20994908700121974800F061
:1004100004F9022010E0002094490870012193485B
:1004200000F0FBF8012007E094480078AA2802D0E9
:10043000002093490870012002BD80B500208DF88E
:10044000000000A800F0D2F801280AD19DF80000B1
:100450008A498F4A128850548D480088401C8C4924
:1004600008808B480088B0F5827F47D100208849FA
:1004700008800020874908800020874908800DE017
:10048000844800887D49844A1288515C401881491B
:10049000088081480088401C7F4908807E48008889
:1004A000FF28EDDD754890F80001AA281FD1734898
:1004B00090F8010177490988C9B2884217D16F487D
:1004C00090F802017349098889B2090AC9B28842C1
:1004D0000DD16A4890F80301A02808D1BD206349D6
:1004E00008700121614800F098F8032007E000201F
:1004F0005E49087001215D4800F08FF8022002BDBE
:1005000010B500245F48007854EA00445E48007843
:1005100054EA00245D480078044300F065F80100C7
:100520002000FFF755FE042010BD10B55548007897
:10053000502827D15FF4C021002000F05DF9574911
:10054000088050204949087054480088474948703D
:100550005248008880B2000A444988700321434809
:1005600000F05BF84148407844498978884207D1D7
:100570003E4880784149C978884201D105202AE067
:10058000002028E04FF480713E4800784FF48052FC
:100590003D4B1B784FF48074634302FB00303B4AB1
:1005A0001278801800F028F93C490880334890F808
:1005B00001013A490988C9B2884208D150202B4923
:1005C00008700121294800F028F8012003E00020EC
:1005D00026490870002010BD80B5002000F0BAF850
:1005E00000F0D5F8052002BD2448704738B5040056
:1005F00000252B480068401C294908600620FFF7A9
:10060000EBFD002806D02748006820700125062051
:10061000FFF7EFFD2800C0B232BD10B400220AE09F
:10062000135C204C2360064B1B681B06FBD5802304
:10063000044C2360521C8A42F2D310BC7047000065
:1006400000E200E080E200E000100E4008100E40E2
:100650000C100E4018100E401C100E4010100E40D2
:1006600014100E401003C2439401C24350020020F4
:10067000D010000066020020241200004C0100206F
:100680007402002071020020720200207302002018
:10069000680200206C0200206A0200206E02002026
:1006A0006002002004100E4062F30F2262F31F422A
:1006B000401810F0030308D0C91A1FD3DB0748BF46
:1006C00000F8012D28BF20F8022D130030B4144685
:1006D0001546103928BF20E93C00FAD8490728BF41
:1006E00020E90C0048BF40F8042D890028BF20F8FD
:1006F000022D48BF00F8012D30BC7047C91818BF43
:1007000000F8012DCB0728BF00F8012D704710B469
:1007100050F8041B81B102681218001D50F8043B08
:10072000DC0744BFA9F10104E31852F8044B43F875
:10073000044B091FF9D1EBE710BC70475220274941
:100740000860B120264908607047000080F30888DF
:1007500070477047C0B201280CD14420214908706D
:100760004F20214908704C20204908704F20204913
:1007700008700BE000201B49087000201A4908701F
:1007800000201A490870002019490870704710B5F8
:1007900044F204044FF480400068FFF7D7FF4FF4A1
:1007A0008040144908602068804710BD0D480078DB
:1007B000C0B2442810D10C480078C0B24F280BD1E9
:1007C0000A480078C0B24C2806D109480078C0B267
:1007D0004F2801D1012000E00020704700200F4089
:1007E00004200F40037F0020027F0020017F0020B3
:1007F000007F002008ED00E0002204E0037852FAB8
:1008000083F2401C491E0029F8D1100080B27047C5
:100810000020DFF8D0120860FF20DFF8CC1208605B
:100820000020DFF8C81208600020DFF8C41208605A
:100830000020DFF8C01208600020DFF8BC1208605A
:100840000020DFF8B81208600020DFF8B41208605A
:100850000020DFF8B01208602820DFF8AC12086032
:10086000F820DFF8A8120860C020DFF8A4120860A2
:100870000720DFF8A0120860D820DFF89C1208607B
:100880000020DFF8981208600020DFF8941208605A
:100890000020DFF8901208600020DFF88C1208605A
:1008A0000020DFF888120860FF20DFF8841208605B
:1008B0000020DFF8801208600020DFF87C1208605A
:1008C0000020DFF8781208600020DFF8741208605A
:1008D0000020DFF8701208600020DFF86C1208605A
:1008E0000020DFF8681208600020DFF8641208605A
:1008F0000020DFF8601208600020DFF85C1208605A
:100900000520DFF8581208600320DFF85412086051
:100910000020DFF8501208600020DFF84C12086059
:100920000020DFF8481208600020DFF84412086059
:10093000FA20DFF8401208600020DFF83C1208605F
:100940000120DFF8381208600020DFF83412086058
:100950000020DFF8301208600020DFF82C12086059
:100960000020DFF8281208600020DFF82412086059
:100970000020DFF8201208600020DFF81C12086059
:100980000020DFF8181208600020DFF81412086059
:100990000020DFF8101208600020DFF80C12086059
:1009A0000020DFF8081208600020DFF80412086059
:1009B0000720DFF8001208600020DFF8FC11086053
:1009C0000020DFF8F81108600020DFF8F41108605B
:1009D0000820DFF8F01108600020DFF8EC11086053
:1009E0000020DFF8E81108600020DFF8E41108605B
:1009F0000020DFF8E0110860FF20DFF8DC1108605C
:100A00008020DFF8D81108600020DFF8D4110860DA
:100A10000020DFF8D01108600020DFF8CC1108605A
:100A20000020DFF8C8110860FF20DFF8C41108605B
:100A30000020DFF8C01108600020DFF8BC1108605A
:100A40000020DFF8B81108600020DFF8B41108605A
:100A50000020DFF8B01108600020DFF8AC1108605A
:100A60000320DFF8A81108600020DFF8A411086057
:100A70000020DFF8A01108600020DFF89C1108605A
:100A80000020DFF8981108600020DFF8941108605A
:100A90000320DFF8901108600020DFF88C11086057
:100AA0000020DFF8881108600020DFF8841108605A
:100AB0000020DFF8801108600020DFF87C1108605A
:100AC0000020DFF8781108600020DFF8741108605A
:100AD0000720DFF8701108600020DFF86C11086053
:100AE0007047000000000C4004000C4008000C405F
:100AF0000C000C4028000C402C000C4030000C4036
:100B000038000C4000010C4004010C4008010C406E
:100B10002C010C4030010C4038010C4000020C400C
:100B200004020C4008020C4028020C402C020C402D
:100B300030020C4038020C4000030C4004030C400F
:100B400008030C400C030C4028030C402C030C4001
:100B500030030C4038030C4000040C4004040C40EB
:100B600008040C400C040C4028040C402C040C40DD
:100B700030040C4038040C4000050C4004050C40C7
:100B800008050C400C050C4028050C402C050C40B9
:100B900030050C4038050C4000060C4004060C40A3
:100BA00028060C402C060C4030060C4038060C4041
:100BB00000070C4004070C4028070C402C070C4091
:100BC00030070C4038070C40000D0C40040D0C4061
:100BD000280D0C402C0D0C40300D0C40380D0C40F5
:100BE00000080C4004080C4028080C402C080C405D
:100BF00030080C4038080C4000090C4004090C4037
:100C000008090C4028090C402C090C4030090C4004
:100C100038090C40000A0C40040A0C40280A0C4019
:100C20002C0A0C40300A0C40380A0C40000C0C40D6
:100C3000040C0C40080C0C400C0C0C40280C0C4014
:100C40002C0C0C40300C0C40380C0C4080B500F0E3
:100C500003F800F091F801BD80B58A4800688A4920
:100C6000884207D287480068401C8649086085484A
:100C7000006804E0002083490860824800688148D9
:100C800000688249884209D08149884223D081493D
:100C900088423CD07C49884254D06CE07E48008831
:100CA000001210F00F0000F087F87C4908707A48B5
:100CB000008880B2000BC0B200F07EF8774948701F
:100CC000482000F079F875498870082000F074F821
:100CD0007249C8704FE07048007810F00F0000F0C3
:100CE0006BF86E4908706C480088C0F30310C0B2FE
:100CF00000F062F8694948704C2000F05DF86749DF
:100D00008870082000F058F86449C87033E06448DF
:100D10000088001210F00F0000F04EF85F490870D4
:100D20005F48008880B2000BC0B200F045F85B4914
:100D30004870482000F040F8584988700020574912
:100D4000C87018E05648007810F00F0000F034F832
:100D50005249087052480088C0F30310C0B200F036
:100D60002BF84E4948704C2000F026F84B4988700B
:100D700000204A49C87001BD80B54A480078401C2F
:100D80004849087047480078042805DB0020454999
:100D900008704448007801E04248007800F01AF8F2
:100DA0004048007800F04AF83C483E490978085C21
:100DB00080B200F062F801BDC0B2102803DA3A49EF
:100DC000C0B2405C04E03949C0B2401810F8410C90
:100DD000C0B2704700200020354908600020354926
:100DE0000860002034490860002034490860002071
:100DF00000E0401CC0B23228FBDB00205FF08741DE
:100E0000086000202E49086000202E49086000205C
:100E10002D49086000202D49086000202C490860F9
:100E200000202C49086000BF00BF00BF002000E088
:100E3000401CC0B23228FBDB70470000C0B2002863
:100E400003D101201A49086013E0C0B2012803D180
:100E50000120184908600CE0C0B2022803D101202B
:100E60001549086005E0C0B2032802D101201349EA
:100E7000086000BF00BF00BF704710F07F00164938
:100E8000086070475C020020801A0600A0860100FE
:100E9000400D0300E093040064020020580200208B
:100EA0006602002070020020F8110000801100008E
:100EB0000C4080430840804304408043004080430E
:100EC00004008043080080430C00804310008043EE
:100ED000140080431800804300000C400020484963
:100EE000086048480068002802D1B12046490860DF
:100EF0004648006850F4700044490860F9204449AD
:100F000008600020434908600620414908604248C3
:100F100000680003000B404908603F48006850F03B
:100F20002C603D49086001203C49086001203C4993
:100F3000086001203B4908603B4800680028FBD15D
:100F400001202B4908602A4800680128FBD10020B5
:100F500036490860304800680003000B2E490860DD
:100F60002D48006850F078702B49086030480068C0
:100F70006FF34F002E4908602D48006840F433405D
:100F800050F05C002A490860012026490860264884
:100F900000680028FBD1204800680003000B1E49B0
:100FA00008601D48006850F0FA601B490860012085
:100FB0001149086001201B4908601B48006800288F
:100FC000FBD101200B4908605FF480300B490860B9
:100FD0000A480068C008C00008490860074800685F
:100FE0000649086040F2031012490860704700008B
:100FF000C400E6438001E6438800E64300300F402A
:1010000000200F401C00E44304200F4088ED00E066
:1010100000100F4004100F4004300F40A000E643C2
:10102000CC00E6438000E6438400E643C000E6438C
:101030000C300F4008300F4010B572B60020006829
:10104000FFF784FB00201D490860FFF777FBFFF7DF
:10105000DFFBFFF7D9F800244FF480410020FFF7B1
:10106000CBFB1749088000F00EF8002802D0FFF7EC
:101070008EFB10BDFFF7EAFD1248E4B250F82400E1
:1010800080470400F6E780B5FFF790FB012812D0F7
:101090005FF4C0210020FFF7AFFB0B49098889B23C
:1010A00080B2814207D106480088084909888842F1
:1010B00001D1012000E0002002BD000008ED00E0A9
:1010C00064020020E0110000F2FF0500241200007D
:1010D000000000000080000000000100008001000E
:1010E00000000200008002000000030000800300F6
:1010F00000000400008004000000050000800500DE
:1011000000000600008006000000070000800700C5
:1011100010B5074979441831064C7C44163404E074
:101120000A68081D511888470146A142F8D110BD30
:101130002C0000004C00000050F8041B61B150F876
:10114000042BD30744BFA9F101039A180023091FF8
:1011500042F8043BFAD1EFE770470000DDFFFFFFE4
:101160002C0100004C01002000000000A3F5FFFF4F
:101170004C010000500200000000002000000000B0
:10118000777C395E79716F76061F003800543F73A3
:1011900067506D783E0000006608000000F00BF814
:1011A000002801D0FFF7B4FF0020C046C046FFF77B
:1011B00043FF00F002F80120704700F001B8000082
:1011C0000746384600F002F8FBE7000080B5C0464D
:1011D000C046024A11001820ABBEFBE72600020001
:1011E00053020000970300003B04000001050000CB
:1011F0002B050000D90500003F065B4F666D7D277B
:101200007F6F777C395E79710148804701480047DC
:10121000DD0E000019120000C046C046C046C046A0
:10122000FFF7BCFF256EDA9125AEDA51FFF7FEBF5E
:10123000FFF7FEBFFFF7FEBFFFF7FEBFFFF7FEBFE2
:10124000FFF7FEBFFFF7FEBFFFF7FEBFFFF7FEBFD2
:10125000FFF7FEBFFFF7FEBFFFF7FEBFFFF7FEBFC2
:10126000FFF7FEBFFFF7FEBFFFF7FEBFFFF7FEBFB2
:10127000FFF7FEBFFFF7FEBFFFF7FEBFFFF7FEBFA2
:10128000FFF7FEBFFFF7FEBFFFF7FEBFFFF7FEBF92
:10129000FFF7FEBFFFF7FEBFFFF7FEBFFFF7FEBF82
:1012A000FFF7FEBFFFF7FEBFFFF7FEBFFFF7FEBF72
:1012B000FFF7FEBFFFF7FEBFFFF7FEBFFFF7FEBF62
:1012C000FFF7FEBFFFF7FEBFFFF7E2BFFFF7FEBF6E
:1012D000FFF7FEBFFFF7FEBFFFF7FEBFFFF7FEBF42
:1012E000FFF7FEBFFFF7FEBFFFF7FEBFFFF7FEBF32
:1012F000FFF7FEBFFFF7FEBFFFF7FEBFFFF7FEBF22
:10130000FFF7FEBFFFF7FEBFFFF7FEBFFFF7FEBF11
:10131000FFF7FEBFFFF7FEBFFFF7FEBFFFF7FEBF01
:10132000FFF7FEBFFFF7FEBFFFF7FEBFFFF7FEBFF1
:10133000FFF7FEBFFFF7FEBFFFF7FEBFFFF7FEBFE1
:10134000FFF7FEBFFFF7FEBFFFF7FEBFFFF7FEBFD1
:10135000FFF7FEBFFFF7FEBFFFF7FEBFFFF7FEBFC1
:10136000FFF7FEBFFFF7FEBFFFF7FEBFFFF7FEBFB1
:10137000FFF7FEBFFFF7FEBFFFF7FEBFFFF7FEBFA1
:10138000FFF7FEBFFFF7FEBFFFF7FEBFFFF7FEBF91
:10139000FFF7FEBFFFF7FEBFFFF7FEBFFFF7FEBF81
:1013A000FFF7FEBFFFF7FEBFFFF7FEBFFFF7FEBF71
:1013B000FFF7FEBFFFF7FEBFFFF7FEBFFFF7FEBF61
:1013C000FFF7FEBF70B506004D4C4E4D0720C0B272
:1013D0004D4908604C490968C0B28142FAD1360BC8
:1013E000360356F0BC46F020286000F083F8AA20AF
:1013F00020605520286080202060AA202060552091
:1014000028604020307000F075F80020C0B23E49DE
:1014100008603D490968C0B28142FAD170BD70B51B
:101420000600374C374D0720C0B2374908603649AF
:101430000968C0B28142FAD1B60BB60356F0BC4679
:10144000F020286000F056F8AA202060552028607F
:1014500080202060AA202060552028603020307035
:1014600000F048F80020C0B2274908602649096802
:10147000C0B28142FAD170BD2DE9F04180460F0023
:101480001F4C204D5FEA18285FEA082858F0BC4836
:10149000002616E03968C8F800103F1D401C0428DB
:1014A000F8DB18F1100800F025F8F0202860002083
:1014B000C0B21549086014490968C0B28142FAD126
:1014C000761C102E14DA0720C0B20F4908600E49AE
:1014D0000968C0B28142FAD1F020286000F00AF811
:1014E000AA20206055202860A02020600020D6E798
:1014F000BDE8F08105480068C007FBD570470000D3
:101500000054005E00AA005E4001FF5D2000FF5D08
:0400000500001219CC
:00000001FF
